{
  "contractName": "Election",
  "abi": [
    {
      "inputs": [],
      "payable": false,
      "stateMutability": "nonpayable",
      "type": "constructor"
    },
    {
      "anonymous": false,
      "inputs": [
        {
          "indexed": true,
          "internalType": "address",
          "name": "_voter",
          "type": "address"
        },
        {
          "indexed": false,
          "internalType": "uint256",
          "name": "_candidateIndex",
          "type": "uint256"
        }
      ],
      "name": "voteEvent",
      "type": "event"
    },
    {
      "constant": true,
      "inputs": [
        {
          "internalType": "uint256",
          "name": "",
          "type": "uint256"
        }
      ],
      "name": "candidates",
      "outputs": [
        {
          "internalType": "uint256",
          "name": "id",
          "type": "uint256"
        },
        {
          "internalType": "string",
          "name": "name",
          "type": "string"
        },
        {
          "internalType": "uint256",
          "name": "votesReceived",
          "type": "uint256"
        }
      ],
      "payable": false,
      "stateMutability": "view",
      "type": "function"
    },
    {
      "constant": true,
      "inputs": [],
      "name": "contractOwner",
      "outputs": [
        {
          "internalType": "address",
          "name": "",
          "type": "address"
        }
      ],
      "payable": false,
      "stateMutability": "view",
      "type": "function"
    },
    {
      "constant": true,
      "inputs": [],
      "name": "isVotingOpen",
      "outputs": [
        {
          "internalType": "bool",
          "name": "",
          "type": "bool"
        }
      ],
      "payable": false,
      "stateMutability": "view",
      "type": "function"
    },
    {
      "constant": true,
      "inputs": [],
      "name": "totalVotes",
      "outputs": [
        {
          "internalType": "uint256",
          "name": "",
          "type": "uint256"
        }
      ],
      "payable": false,
      "stateMutability": "view",
      "type": "function"
    },
    {
      "constant": true,
      "inputs": [
        {
          "internalType": "address",
          "name": "",
          "type": "address"
        }
      ],
      "name": "voters",
      "outputs": [
        {
          "internalType": "bool",
          "name": "voted",
          "type": "bool"
        },
        {
          "internalType": "uint256",
          "name": "vote",
          "type": "uint256"
        }
      ],
      "payable": false,
      "stateMutability": "view",
      "type": "function"
    },
    {
      "constant": false,
      "inputs": [
        {
          "internalType": "string",
          "name": "_name",
          "type": "string"
        }
      ],
      "name": "addCandidate",
      "outputs": [],
      "payable": false,
      "stateMutability": "nonpayable",
      "type": "function"
    },
    {
      "constant": false,
      "inputs": [],
      "name": "endElection",
      "outputs": [],
      "payable": false,
      "stateMutability": "nonpayable",
      "type": "function"
    },
    {
      "constant": false,
      "inputs": [],
      "name": "startElection",
      "outputs": [],
      "payable": false,
      "stateMutability": "nonpayable",
      "type": "function"
    },
    {
      "constant": false,
      "inputs": [
        {
          "internalType": "uint256",
          "name": "_candidateIndex",
          "type": "uint256"
        }
      ],
      "name": "vote",
      "outputs": [],
      "payable": false,
      "stateMutability": "nonpayable",
      "type": "function"
    },
    {
      "constant": true,
      "inputs": [
        {
          "internalType": "uint256",
          "name": "_candidateIndex",
          "type": "uint256"
        }
      ],
      "name": "getCandidate",
      "outputs": [
        {
          "internalType": "uint256",
          "name": "id",
          "type": "uint256"
        },
        {
          "internalType": "string",
          "name": "name",
          "type": "string"
        },
        {
          "internalType": "uint256",
          "name": "votesReceived",
          "type": "uint256"
        }
      ],
      "payable": false,
      "stateMutability": "view",
      "type": "function"
    },
    {
      "constant": true,
      "inputs": [
        {
          "internalType": "uint256",
          "name": "_candidateIndex",
          "type": "uint256"
        }
      ],
      "name": "getCandidateVotes",
      "outputs": [
        {
          "internalType": "uint256",
          "name": "",
          "type": "uint256"
        }
      ],
      "payable": false,
      "stateMutability": "view",
      "type": "function"
    },
    {
      "constant": true,
      "inputs": [],
      "name": "getNumofCandidates",
      "outputs": [
        {
          "internalType": "uint256",
          "name": "",
          "type": "uint256"
        }
      ],
      "payable": false,
      "stateMutability": "view",
      "type": "function"
    },
    {
      "constant": true,
      "inputs": [],
      "name": "getWinnerCandidate",
      "outputs": [
        {
          "internalType": "uint256",
          "name": "id",
          "type": "uint256"
        },
        {
          "internalType": "string",
          "name": "name",
          "type": "string"
        },
        {
          "internalType": "uint256",
          "name": "votesReceived",
          "type": "uint256"
        }
      ],
      "payable": false,
      "stateMutability": "view",
      "type": "function"
    }
  ],
  "bytecode": "0x608060405234801561001057600080fd5b50336000806101000a81548173ffffffffffffffffffffffffffffffffffffffff021916908373ffffffffffffffffffffffffffffffffffffffff160217905550600060018190555061126f806100686000396000f3fe608060405234801561001057600080fd5b50600436106100cf5760003560e01c806359f784681161008c578063a3ec138d11610066578063a3ec138d1461042c578063ce4472f41461048f578063ce606ee0146104ad578063fa7f1bae146104f7576100cf565b806359f78468146103d657806362d73eb8146103e0578063866163c0146103ea576100cf565b80630121b93f146100d457806306f0d4f6146101025780630d15fd77146101935780633477ee2e146101b157806335b8e82014610266578063462e91ec1461031b575b600080fd5b610100600480360360208110156100ea57600080fd5b8101908080359060200190929190505050610519565b005b61010a6107e8565b6040518084815260200180602001838152602001828103825284818151815260200191508051906020019080838360005b8381101561015657808201518184015260208101905061013b565b50505050905090810190601f1680156101835780820380516001836020036101000a031916815260200191505b5094505050505060405180910390f35b61019b6109ce565b6040518082815260200191505060405180910390f35b6101dd600480360360208110156101c757600080fd5b81019080803590602001909291905050506109d4565b6040518084815260200180602001838152602001828103825284818151815260200191508051906020019080838360005b8381101561022957808201518184015260208101905061020e565b50505050905090810190601f1680156102565780820380516001836020036101000a031916815260200191505b5094505050505060405180910390f35b6102926004803603602081101561027c57600080fd5b8101908080359060200190929190505050610aa3565b6040518084815260200180602001838152602001828103825284818151815260200191508051906020019080838360005b838110156102de5780820151818401526020810190506102c3565b50505050905090810190601f16801561030b5780820380516001836020036101000a031916815260200191505b5094505050505060405180910390f35b6103d46004803603602081101561033157600080fd5b810190808035906020019064010000000081111561034e57600080fd5b82018360208201111561036057600080fd5b8035906020019184600183028401116401000000008311171561038257600080fd5b91908080601f016020809104026020016040519081016040528093929190818152602001838380828437600081840152601f19601f820116905080830192505050505050509192919290505050610c24565b005b6103de610db4565b005b6103e8610e75565b005b6104166004803603602081101561040057600080fd5b8101908080359060200190929190505050610f37565b6040518082815260200191505060405180910390f35b61046e6004803603602081101561044257600080fd5b81019080803573ffffffffffffffffffffffffffffffffffffffff16906020019092919050505061103b565b60405180831515151581526020018281526020019250505060405180910390f35b61049761106c565b6040518082815260200191505060405180910390f35b6104b5611079565b604051808273ffffffffffffffffffffffffffffffffffffffff1673ffffffffffffffffffffffffffffffffffffffff16815260200191505060405180910390f35b6104ff61109e565b604051808215151515815260200191505060405180910390f35b600060149054906101000a900460ff1661057e576040517f08c379a000000000000000000000000000000000000000000000000000000000815260040180806020018281038252602b815260200180611184602b913960400191505060405180910390fd5b600260003373ffffffffffffffffffffffffffffffffffffffff1673ffffffffffffffffffffffffffffffffffffffff16815260200190815260200160002060000160009054906101000a900460ff1615610641576040517f08c379a000000000000000000000000000000000000000000000000000000000815260040180806020018281038252600e8152602001807f416c726561647920766f7465642100000000000000000000000000000000000081525060200191505060405180910390fd5b60008110156106b8576040517f08c379a00000000000000000000000000000000000000000000000000000000081526004018080602001828103825260128152602001807f496e76616c69642063616e64696461746521000000000000000000000000000081525060200191505060405180910390fd5b80600260003373ffffffffffffffffffffffffffffffffffffffff1673ffffffffffffffffffffffffffffffffffffffff168152602001908152602001600020600101819055506001600260003373ffffffffffffffffffffffffffffffffffffffff1673ffffffffffffffffffffffffffffffffffffffff16815260200190815260200160002060000160006101000a81548160ff02191690831515021790555060016003828154811061076957fe5b906000526020600020906003020160020160008282540192505081905550600180600082825401925050819055503373ffffffffffffffffffffffffffffffffffffffff167ffc40d59d9cd345138382659ed6d704f1bdb9fda86e4cda1698cdeb097279b353826040518082815260200191505060405180910390a250565b6000606060008060149054906101000a900460ff1615610853576040517f08c379a000000000000000000000000000000000000000000000000000000000815260040180806020018281038252603181526020018061120a6031913960400191505060405180910390fd5b6000809050600080905060008090505b6003805490508110156108c857826003828154811061087e57fe5b90600052602060002090600302016002015411156108bb57600381815481106108a357fe5b90600052602060002090600302016002015492508091505b8080600101915050610863565b50600381815481106108d657fe5b906000526020600020906003020160000154600382815481106108f557fe5b90600052602060002090600302016001016003838154811061091357fe5b906000526020600020906003020160020154818054600181600116156101000203166002900480601f0160208091040260200160405190810160405280929190818152602001828054600181600116156101000203166002900480156109ba5780601f1061098f576101008083540402835291602001916109ba565b820191906000526020600020905b81548152906001019060200180831161099d57829003601f168201915b505050505091509450945094505050909192565b60015481565b600381815481106109e157fe5b9060005260206000209060030201600091509050806000015490806001018054600181600116156101000203166002900480601f016020809104026020016040519081016040528092919081815260200182805460018160011615610100020316600290048015610a935780601f10610a6857610100808354040283529160200191610a93565b820191906000526020600020905b815481529060010190602001808311610a7657829003601f168201915b5050505050908060020154905083565b60006060600080841015610b1f576040517f08c379a00000000000000000000000000000000000000000000000000000000081526004018080602001828103825260128152602001807f496e76616c69642063616e64696461746521000000000000000000000000000081525060200191505060405180910390fd5b60038481548110610b2c57fe5b90600052602060002090600302016000015460038581548110610b4b57fe5b906000526020600020906003020160010160038681548110610b6957fe5b906000526020600020906003020160020154818054600181600116156101000203166002900480601f016020809104026020016040519081016040528092919081815260200182805460018160011615610100020316600290048015610c105780601f10610be557610100808354040283529160200191610c10565b820191906000526020600020905b815481529060010190602001808311610bf357829003601f168201915b505050505091509250925092509193909250565b6000809054906101000a900473ffffffffffffffffffffffffffffffffffffffff1673ffffffffffffffffffffffffffffffffffffffff163373ffffffffffffffffffffffffffffffffffffffff1614610cc9576040517f08c379a00000000000000000000000000000000000000000000000000000000081526004018080602001828103825260238152602001806111e76023913960400191505060405180910390fd5b600060149054906101000a900460ff1615610d2f576040517f08c379a000000000000000000000000000000000000000000000000000000000815260040180806020018281038252602d815260200180611157602d913960400191505060405180910390fd5b600360405180606001604052806003805490508152602001838152602001600081525090806001815401808255809150509060018203906000526020600020906003020160009091929091909150600082015181600001556020820151816001019080519060200190610da39291906110b1565b506040820151816002015550505050565b6000809054906101000a900473ffffffffffffffffffffffffffffffffffffffff1673ffffffffffffffffffffffffffffffffffffffff163373ffffffffffffffffffffffffffffffffffffffff1614610e59576040517f08c379a00000000000000000000000000000000000000000000000000000000081526004018080602001828103825260238152602001806111e76023913960400191505060405180910390fd5b60008060146101000a81548160ff021916908315150217905550565b6000809054906101000a900473ffffffffffffffffffffffffffffffffffffffff1673ffffffffffffffffffffffffffffffffffffffff163373ffffffffffffffffffffffffffffffffffffffff1614610f1a576040517f08c379a00000000000000000000000000000000000000000000000000000000081526004018080602001828103825260238152602001806111e76023913960400191505060405180910390fd5b6001600060146101000a81548160ff021916908315150217905550565b60008060149054906101000a900460ff1615610f9e576040517f08c379a00000000000000000000000000000000000000000000000000000000081526004018080602001828103825260388152602001806111af6038913960400191505060405180910390fd5b6000821015611015576040517f08c379a00000000000000000000000000000000000000000000000000000000081526004018080602001828103825260128152602001807f496e76616c69642063616e64696461746521000000000000000000000000000081525060200191505060405180910390fd5b6003828154811061102257fe5b9060005260206000209060030201600201549050919050565b60026020528060005260406000206000915090508060000160009054906101000a900460ff16908060010154905082565b6000600380549050905090565b6000809054906101000a900473ffffffffffffffffffffffffffffffffffffffff1681565b600060149054906101000a900460ff1681565b828054600181600116156101000203166002900490600052602060002090601f016020900481019282601f106110f257805160ff1916838001178555611120565b82800160010185558215611120579182015b8281111561111f578251825591602001919060010190611104565b5b50905061112d9190611131565b5090565b61115391905b8082111561114f576000816000905550600101611137565b5090565b9056fe43616e6e6f74206164642063616e6469646174657320616674657220766f74696e672068617320626567756e2143616e6e6f7420766f7465206265666f726520766f74696e6720706572696f642068617320626567756e2143616e6e6f74207365652063616e646964617465277320766f74657320756e74696c20656e64206f6620766f74696e6720706572696f642152657175697265732061646d696e6973747261746f722070726976696c65646765732143616e6e6f7420646973706c61792077696e6e657220756e74696c20656e64206f6620766f74696e6720706572696f6421a265627a7a72315820c1a90af3e360401a49c5bc805fecc2e7de7751a7d586938c236305742897fc8764736f6c63430005100032",
  "source": "// SPDX-License-Identifier: MIT\r\npragma solidity >=0.5.0; // specification of compiler\r\n\r\ncontract Election{\r\n\r\n/***********************************************************************STATE VARIABLES**********************************************************************/\r\n\r\n    address public contractOwner; // address of the owner of the smart contract (IEC)\r\n    \r\n    bool public isVotingOpen; // status of election\r\n\r\n    uint public totalVotes; // total votes cast during election\r\n\r\n    event voteEvent(address indexed _voter, uint _candidateIndex); // vote event log\r\n\r\n    mapping(address => Voter) public voters; // hashmap of voters addresses\r\n\r\n    Candidate[] public candidates; // array of candidates\r\n\r\n/***********************************************************************CONSTRUCTOR**********************************************************************/\r\n    \r\n    constructor() public{ // constructor\r\n        contractOwner = msg.sender; // sets caller to owner of contract\r\n        totalVotes = 0;\r\n    }    \r\n\r\n    modifier adminOnly(){ // function to require special permission\r\n        require(msg.sender == contractOwner, \"Requires administrator priviledges!\"); // requires contract owner to request function call\r\n        _; // if *require* is achieved, executes rest of code\r\n    }    \r\n\r\n/****************************************************************CANDIDATE/VOTER STRUCTURE***************************************************************/    \r\n    \r\n    struct Candidate{\r\n        uint id;    // candidate id\r\n        string name; // name of candidate\r\n        uint votesReceived; // number of votes candidate received\r\n    }\r\n    \r\n    struct Voter{\r\n        bool voted; // checks if voter has voted\r\n        uint vote; // candidate voter has voted\r\n    }\r\n\r\n/**********************************************************************WRITE FUNCTIONS***********************************************************************/\r\n\r\n    function addCandidate(string memory _name) adminOnly public{\r\n        require(!isVotingOpen, \"Cannot add candidates after voting has begun!\"); // requires voting to be closed\r\n        candidates.push(Candidate(candidates.length, _name, 0)); // adds the candidate onto the candidate array, by default 0 votes\r\n    }\r\n\r\n    function endElection() adminOnly public{ // ends the contract and election\r\n        isVotingOpen = false;\r\n    }    \r\n    \r\n    function startElection() adminOnly public{ // begins the election\r\n        isVotingOpen = true;\r\n    }\r\n\r\n    function vote(uint _candidateIndex) public{ // function for the user to vote\r\n        require(isVotingOpen, \"Cannot vote before voting period has begun!\"); // requires voting to be open\r\n        require(!voters[msg.sender].voted, \"Already voted!\"); // voter *MUST NOT* have voted\r\n        require(_candidateIndex >= 0, \"Invalid candidate!\"); // requires valid candidateID\r\n        \r\n        voters[msg.sender].vote = _candidateIndex; // sets candidate voted for\r\n        voters[msg.sender].voted = true; // changes voter's status to have voted\r\n        candidates[_candidateIndex].votesReceived += 1; // increments candidate's vote tally\r\n        totalVotes += 1; // increments total votes in election\r\n\r\n        emit voteEvent(msg.sender, _candidateIndex); // vote event\r\n    }\r\n\r\n/********************************************************************READ-ONLY FUNCTIONS*********************************************************************/\r\n\r\n    function getCandidate(uint _candidateIndex) public view returns (uint id, string memory name, uint votesReceived){\r\n        require(_candidateIndex >= 0, \"Invalid candidate!\"); // requires valid candidateID\r\n        return (candidates[_candidateIndex].id, candidates[_candidateIndex].name, candidates[_candidateIndex].votesReceived);\r\n    }\r\n    \r\n    function getCandidateVotes(uint _candidateIndex) public view returns (uint){ // returns number of votes for candidate, read only function (zero fees)\r\n        require(!isVotingOpen, \"Cannot see candidate's votes until end of voting period!\"); // requires voting to be closed\r\n        require(_candidateIndex >= 0, \"Invalid candidate!\"); // requires valid candidateID\r\n        return candidates[_candidateIndex].votesReceived; // returns candidate's vote tally\r\n    }\r\n\r\n    function getNumofCandidates() public view returns (uint){ // returns number of candidates, read only function (zero fees)\r\n        return candidates.length;\r\n    }\r\n    \r\n    function getWinnerCandidate() public view returns (uint id, string memory name, uint votesReceived){ // returns winning candidate's details, read only function (zero fees)\r\n        require(!isVotingOpen, \"Cannot display winner until end of voting period!\"); // requires voting to be closed\r\n\r\n        uint winnersVotes = 0;\r\n        uint _candidateIndex = 0;\r\n        \r\n        for (uint i = 0; i < candidates.length; i++) {\r\n            if (candidates[i].votesReceived > winnersVotes) {\r\n                winnersVotes = candidates[i].votesReceived;\r\n                _candidateIndex = i;\r\n            }\r\n        }\r\n\r\n        return (candidates[_candidateIndex].id, candidates[_candidateIndex].name, candidates[_candidateIndex].votesReceived);\r\n    }\r\n}\r\n\r\n/********************************************************************END*********************************************************************/",
  "sourcePath": "C:/Users/Student/Desktop/Varsity/ENEL4DA-Electronic-Design-3/Design-Project/Code/Votecoin-v2/contracts/Election.sol",
  "compiler": {
    "name": "solc",
    "version": "0.5.16+commit.9c3226ce.Emscripten.clang"
  },
  "schemaVersion": "3.4.1",
  "updatedAt": "2021-06-19T19:12:26.496Z",
  "networkType": "ethereum",
  "devdoc": {
    "methods": {}
  },
  "userdoc": {
    "methods": {
      "addCandidate(string)": {
        "notice": "********************************************************************WRITE FUNCTIONS**********************************************************************"
      },
      "constructor": "*********************************************************************CONSTRUCTOR*********************************************************************",
      "getCandidate(uint256)": {
        "notice": "******************************************************************READ-ONLY FUNCTIONS********************************************************************"
      }
    }
  }
}