{
  "contractName": "Election",
  "abi": [
    {
      "inputs": [],
      "payable": false,
      "stateMutability": "nonpayable",
      "type": "constructor"
    },
    {
      "anonymous": false,
      "inputs": [
        {
          "indexed": true,
          "internalType": "address",
          "name": "_voter",
          "type": "address"
        },
        {
          "indexed": false,
          "internalType": "uint256",
          "name": "_candidateIndex",
          "type": "uint256"
        }
      ],
      "name": "voteEvent",
      "type": "event"
    },
    {
      "constant": true,
      "inputs": [
        {
          "internalType": "uint256",
          "name": "",
          "type": "uint256"
        }
      ],
      "name": "candidates",
      "outputs": [
        {
          "internalType": "uint256",
          "name": "id",
          "type": "uint256"
        },
        {
          "internalType": "string",
          "name": "name",
          "type": "string"
        },
        {
          "internalType": "uint256",
          "name": "votesReceived",
          "type": "uint256"
        }
      ],
      "payable": false,
      "stateMutability": "view",
      "type": "function"
    },
    {
      "constant": true,
      "inputs": [],
      "name": "contractOwner",
      "outputs": [
        {
          "internalType": "address",
          "name": "",
          "type": "address"
        }
      ],
      "payable": false,
      "stateMutability": "view",
      "type": "function"
    },
    {
      "constant": true,
      "inputs": [],
      "name": "isVotingOpen",
      "outputs": [
        {
          "internalType": "bool",
          "name": "",
          "type": "bool"
        }
      ],
      "payable": false,
      "stateMutability": "view",
      "type": "function"
    },
    {
      "constant": true,
      "inputs": [],
      "name": "numofVoters",
      "outputs": [
        {
          "internalType": "uint256",
          "name": "",
          "type": "uint256"
        }
      ],
      "payable": false,
      "stateMutability": "view",
      "type": "function"
    },
    {
      "constant": true,
      "inputs": [],
      "name": "totalVotes",
      "outputs": [
        {
          "internalType": "uint256",
          "name": "",
          "type": "uint256"
        }
      ],
      "payable": false,
      "stateMutability": "view",
      "type": "function"
    },
    {
      "constant": true,
      "inputs": [
        {
          "internalType": "address",
          "name": "",
          "type": "address"
        }
      ],
      "name": "voters",
      "outputs": [
        {
          "internalType": "bool",
          "name": "authorized",
          "type": "bool"
        },
        {
          "internalType": "bool",
          "name": "voted",
          "type": "bool"
        },
        {
          "internalType": "uint256",
          "name": "vote",
          "type": "uint256"
        }
      ],
      "payable": false,
      "stateMutability": "view",
      "type": "function"
    },
    {
      "constant": false,
      "inputs": [
        {
          "internalType": "string",
          "name": "_name",
          "type": "string"
        }
      ],
      "name": "addCandidate",
      "outputs": [],
      "payable": false,
      "stateMutability": "nonpayable",
      "type": "function"
    },
    {
      "constant": false,
      "inputs": [
        {
          "internalType": "address",
          "name": "_person",
          "type": "address"
        }
      ],
      "name": "authorizeVoter",
      "outputs": [],
      "payable": false,
      "stateMutability": "nonpayable",
      "type": "function"
    },
    {
      "constant": false,
      "inputs": [],
      "name": "endElection",
      "outputs": [],
      "payable": false,
      "stateMutability": "nonpayable",
      "type": "function"
    },
    {
      "constant": false,
      "inputs": [],
      "name": "startElection",
      "outputs": [],
      "payable": false,
      "stateMutability": "nonpayable",
      "type": "function"
    },
    {
      "constant": false,
      "inputs": [
        {
          "internalType": "uint256",
          "name": "_candidateIndex",
          "type": "uint256"
        }
      ],
      "name": "vote",
      "outputs": [],
      "payable": false,
      "stateMutability": "nonpayable",
      "type": "function"
    },
    {
      "constant": true,
      "inputs": [
        {
          "internalType": "uint256",
          "name": "_candidateIndex",
          "type": "uint256"
        }
      ],
      "name": "getCandidateVotes",
      "outputs": [
        {
          "internalType": "uint256",
          "name": "",
          "type": "uint256"
        }
      ],
      "payable": false,
      "stateMutability": "view",
      "type": "function"
    },
    {
      "constant": true,
      "inputs": [],
      "name": "getNumofCandidates",
      "outputs": [
        {
          "internalType": "uint256",
          "name": "",
          "type": "uint256"
        }
      ],
      "payable": false,
      "stateMutability": "view",
      "type": "function"
    },
    {
      "constant": true,
      "inputs": [],
      "name": "getWinnerCandidate",
      "outputs": [
        {
          "internalType": "uint256",
          "name": "_candidateIndex",
          "type": "uint256"
        }
      ],
      "payable": false,
      "stateMutability": "view",
      "type": "function"
    },
    {
      "constant": true,
      "inputs": [],
      "name": "getWinnerName",
      "outputs": [
        {
          "internalType": "string",
          "name": "_winnerName",
          "type": "string"
        }
      ],
      "payable": false,
      "stateMutability": "view",
      "type": "function"
    }
  ],
  "bytecode": "0x608060405234801561001057600080fd5b50336000806101000a81548173ffffffffffffffffffffffffffffffffffffffff021916908373ffffffffffffffffffffffffffffffffffffffff1602179055506000600281905550611476806100686000396000f3fe608060405234801561001057600080fd5b50600436106100f55760003560e01c806362d73eb811610097578063ce606ee011610066578063ce606ee014610439578063e2e2321414610483578063fa7f1bae146104a1578063fd47b368146104c3576100f5565b806362d73eb814610361578063866163c01461036b578063a3ec138d146103ad578063ce4472f41461041b576100f5565b80632bfda515116100d35780632bfda515146101645780633477ee2e146101e7578063462e91ec1461029c57806359f7846814610357576100f5565b80630121b93f146100fa57806306f0d4f6146101285780630d15fd7714610146575b600080fd5b6101266004803603602081101561011057600080fd5b8101908080359060200190929190505050610507565b005b610130610899565b6040518082815260200191505060405180910390f35b61014e610975565b6040518082815260200191505060405180910390f35b61016c61097b565b6040518080602001828103825283818151815260200191508051906020019080838360005b838110156101ac578082015181840152602081019050610191565b50505050905090810190601f1680156101d95780820380516001836020036101000a031916815260200191505b509250505060405180910390f35b610213600480360360208110156101fd57600080fd5b8101908080359060200190929190505050610aa6565b6040518084815260200180602001838152602001828103825284818151815260200191508051906020019080838360005b8381101561025f578082015181840152602081019050610244565b50505050905090810190601f16801561028c5780820380516001836020036101000a031916815260200191505b5094505050505060405180910390f35b610355600480360360208110156102b257600080fd5b81019080803590602001906401000000008111156102cf57600080fd5b8201836020820111156102e157600080fd5b8035906020019184600183028401116401000000008311171561030357600080fd5b91908080601f016020809104026020016040519081016040528093929190818152602001838380828437600081840152601f19601f820116905080830192505050505050509192919290505050610b75565b005b61035f610d05565b005b610369610dc6565b005b6103976004803603602081101561038157600080fd5b8101908080359060200190929190505050610e88565b6040518082815260200191505060405180910390f35b6103ef600480360360208110156103c357600080fd5b81019080803573ffffffffffffffffffffffffffffffffffffffff169060200190929190505050610f8c565b604051808415151515815260200183151515158152602001828152602001935050505060405180910390f35b610423610fd0565b6040518082815260200191505060405180910390f35b610441610fdd565b604051808273ffffffffffffffffffffffffffffffffffffffff1673ffffffffffffffffffffffffffffffffffffffff16815260200191505060405180910390f35b61048b611002565b6040518082815260200191505060405180910390f35b6104a9611008565b604051808215151515815260200191505060405180910390f35b610505600480360360208110156104d957600080fd5b81019080803573ffffffffffffffffffffffffffffffffffffffff16906020019092919050505061101b565b005b600060149054906101000a900460ff1661056c576040517f08c379a000000000000000000000000000000000000000000000000000000000815260040180806020018281038252602b81526020018061132c602b913960400191505060405180910390fd5b600360003373ffffffffffffffffffffffffffffffffffffffff1673ffffffffffffffffffffffffffffffffffffffff16815260200190815260200160002060000160009054906101000a900460ff1661062e576040517f08c379a00000000000000000000000000000000000000000000000000000000081526004018080602001828103825260158152602001807f556e617574686f72697a656420746f20766f746521000000000000000000000081525060200191505060405180910390fd5b600360003373ffffffffffffffffffffffffffffffffffffffff1673ffffffffffffffffffffffffffffffffffffffff16815260200190815260200160002060000160019054906101000a900460ff16156106f1576040517f08c379a000000000000000000000000000000000000000000000000000000000815260040180806020018281038252600e8152602001807f416c726561647920766f7465642100000000000000000000000000000000000081525060200191505060405180910390fd5b6000811015610768576040517f08c379a00000000000000000000000000000000000000000000000000000000081526004018080602001828103825260128152602001807f496e76616c69642063616e64696461746521000000000000000000000000000081525060200191505060405180910390fd5b80600360003373ffffffffffffffffffffffffffffffffffffffff1673ffffffffffffffffffffffffffffffffffffffff168152602001908152602001600020600101819055506001600360003373ffffffffffffffffffffffffffffffffffffffff1673ffffffffffffffffffffffffffffffffffffffff16815260200190815260200160002060000160016101000a81548160ff02191690831515021790555060016004828154811061081957fe5b90600052602060002090600302016002016000828254019250508190555060016002600082825401925050819055503373ffffffffffffffffffffffffffffffffffffffff167ffc40d59d9cd345138382659ed6d704f1bdb9fda86e4cda1698cdeb097279b353826040518082815260200191505060405180910390a250565b60008060149054906101000a900460ff1615610900576040517f08c379a00000000000000000000000000000000000000000000000000000000081526004018080602001828103825260318152602001806114116031913960400191505060405180910390fd5b600080905060008090505b60048054905081101561097057816004828154811061092657fe5b9060005260206000209060030201600201541115610963576004818154811061094b57fe5b90600052602060002090600302016002015491508092505b808060010191505061090b565b505090565b60025481565b6060600060149054906101000a900460ff16156109e3576040517f08c379a00000000000000000000000000000000000000000000000000000000081526004018080602001828103825260388152602001806113b66038913960400191505060405180910390fd5b60046109ed610899565b815481106109f757fe5b90600052602060002090600302016001018054600181600116156101000203166002900480601f016020809104026020016040519081016040528092919081815260200182805460018160011615610100020316600290048015610a9c5780601f10610a7157610100808354040283529160200191610a9c565b820191906000526020600020905b815481529060010190602001808311610a7f57829003601f168201915b5050505050905090565b60048181548110610ab357fe5b9060005260206000209060030201600091509050806000015490806001018054600181600116156101000203166002900480601f016020809104026020016040519081016040528092919081815260200182805460018160011615610100020316600290048015610b655780601f10610b3a57610100808354040283529160200191610b65565b820191906000526020600020905b815481529060010190602001808311610b4857829003601f168201915b5050505050908060020154905083565b6000809054906101000a900473ffffffffffffffffffffffffffffffffffffffff1673ffffffffffffffffffffffffffffffffffffffff163373ffffffffffffffffffffffffffffffffffffffff1614610c1a576040517f08c379a00000000000000000000000000000000000000000000000000000000081526004018080602001828103825260238152602001806113ee6023913960400191505060405180910390fd5b600060149054906101000a900460ff1615610c80576040517f08c379a000000000000000000000000000000000000000000000000000000000815260040180806020018281038252602d8152602001806112ff602d913960400191505060405180910390fd5b600460405180606001604052806004805490508152602001838152602001600081525090806001815401808255809150509060018203906000526020600020906003020160009091929091909150600082015181600001556020820151816001019080519060200190610cf4929190611259565b506040820151816002015550505050565b6000809054906101000a900473ffffffffffffffffffffffffffffffffffffffff1673ffffffffffffffffffffffffffffffffffffffff163373ffffffffffffffffffffffffffffffffffffffff1614610daa576040517f08c379a00000000000000000000000000000000000000000000000000000000081526004018080602001828103825260238152602001806113ee6023913960400191505060405180910390fd5b60008060146101000a81548160ff021916908315150217905550565b6000809054906101000a900473ffffffffffffffffffffffffffffffffffffffff1673ffffffffffffffffffffffffffffffffffffffff163373ffffffffffffffffffffffffffffffffffffffff1614610e6b576040517f08c379a00000000000000000000000000000000000000000000000000000000081526004018080602001828103825260238152602001806113ee6023913960400191505060405180910390fd5b6001600060146101000a81548160ff021916908315150217905550565b60008060149054906101000a900460ff1615610eef576040517f08c379a00000000000000000000000000000000000000000000000000000000081526004018080602001828103825260388152602001806113576038913960400191505060405180910390fd5b6000821015610f66576040517f08c379a00000000000000000000000000000000000000000000000000000000081526004018080602001828103825260128152602001807f496e76616c69642063616e64696461746521000000000000000000000000000081525060200191505060405180910390fd5b60048281548110610f7357fe5b9060005260206000209060030201600201549050919050565b60036020528060005260406000206000915090508060000160009054906101000a900460ff16908060000160019054906101000a900460ff16908060010154905083565b6000600480549050905090565b6000809054906101000a900473ffffffffffffffffffffffffffffffffffffffff1681565b60015481565b600060149054906101000a900460ff1681565b6000809054906101000a900473ffffffffffffffffffffffffffffffffffffffff1673ffffffffffffffffffffffffffffffffffffffff163373ffffffffffffffffffffffffffffffffffffffff16146110c0576040517f08c379a00000000000000000000000000000000000000000000000000000000081526004018080602001828103825260238152602001806113ee6023913960400191505060405180910390fd5b600060149054906101000a900460ff1615611126576040517f08c379a000000000000000000000000000000000000000000000000000000000815260040180806020018281038252602781526020018061138f6027913960400191505060405180910390fd5b600360008273ffffffffffffffffffffffffffffffffffffffff1673ffffffffffffffffffffffffffffffffffffffff16815260200190815260200160002060000160009054906101000a900460ff16156111e9576040517f08c379a000000000000000000000000000000000000000000000000000000000815260040180806020018281038252601b8152602001807f416c726561647920617574686f72697a656420746f20766f746521000000000081525060200191505060405180910390fd5b6001600360008373ffffffffffffffffffffffffffffffffffffffff1673ffffffffffffffffffffffffffffffffffffffff16815260200190815260200160002060000160006101000a81548160ff02191690831515021790555060016000815480929190600101919050555050565b828054600181600116156101000203166002900490600052602060002090601f016020900481019282601f1061129a57805160ff19168380011785556112c8565b828001600101855582156112c8579182015b828111156112c75782518255916020019190600101906112ac565b5b5090506112d591906112d9565b5090565b6112fb91905b808211156112f75760008160009055506001016112df565b5090565b9056fe43616e6e6f74206164642063616e6469646174657320616674657220766f74696e672068617320626567756e2143616e6e6f7420766f7465206265666f726520766f74696e6720706572696f642068617320626567756e2143616e6e6f74207365652063616e646964617465277320766f74657320756e74696c20656e64206f6620766f74696e6720706572696f642143616e6e6f7420726567697374657220616674657220766f74696e672068617320626567756e2143616e6e6f7420646973706c61792077696e6e65722773206e616d6520756e74696c20656e64206f6620766f74696e6720706572696f642152657175697265732061646d696e6973747261746f722070726976696c65646765732143616e6e6f7420646973706c61792077696e6e657220756e74696c20656e64206f6620766f74696e6720706572696f6421a265627a7a72315820b739e20c6a755691af31d55eef37aaeaf1683e950fdc05c94ec201a2660cc0ef64736f6c63430005100032",
  "source": "pragma solidity ^0.5.16; // specification of compiler\r\n\r\ncontract Election{\r\n\r\n/***********************************************************************STATE VARIABLES**********************************************************************/\r\n\r\n    address public contractOwner; // address of the owner of the smart contract (IEC)\r\n    \r\n    bool public isVotingOpen; // status of election\r\n\r\n    uint public numofVoters; // number of voters\r\n\r\n    uint public totalVotes; // total votes cast during election\r\n\r\n    event voteEvent(address indexed _voter, uint _candidateIndex); // vote event log\r\n\r\n    mapping(address => Voter) public voters; // hashmap of voters addresses\r\n\r\n    Candidate[] public candidates; // array of candidates\r\n\r\n/***********************************************************************CONSTRUCTOR**********************************************************************/\r\n    \r\n    constructor() public{ // constructor\r\n        contractOwner = msg.sender; // sets caller to owner of contract\r\n        totalVotes = 0; /********************************************** */\r\n    }    \r\n\r\n    modifier adminOnly(){ // function to require special permission\r\n        require(msg.sender == contractOwner, \"Requires administrator priviledges!\"); // requires contract owner to request function call\r\n        _; // if *require* is achieved, executes rest of code\r\n    }    \r\n\r\n/****************************************************************CANDIDATE/VOTER STRUCTURE***************************************************************/    \r\n    \r\n    struct Candidate{\r\n        uint id;    // candidate id\r\n        string name; // name of candidate\r\n        uint votesReceived; // number of votes candidate received\r\n    }\r\n    \r\n    struct Voter{\r\n        bool authorized; // checks if voter is authorized to vote\r\n        bool voted; // checks if voter has voted\r\n        uint vote; // candidate voter has voted\r\n    }\r\n\r\n/**********************************************************************WRITE FUNCTIONS***********************************************************************/\r\n\r\n    function addCandidate(string memory _name) adminOnly public{\r\n        require(!isVotingOpen, \"Cannot add candidates after voting has begun!\"); // requires voting to be closed\r\n        candidates.push(Candidate(candidates.length, _name, 0)); // adds the candidate onto the array, by default 0 votes\r\n    }\r\n\r\n    function authorizeVoter(address _person) adminOnly public{ // requires special permission\r\n        require(!isVotingOpen, \"Cannot register after voting has begun!\"); // requires voting to be closed\r\n        require(!voters[_person].authorized, \"Already authorized to vote!\"); // reject if voter already authorized\r\n        voters[_person].authorized = true; // authorization granted\r\n        numofVoters++;\r\n    }\r\n\r\n    function endElection() adminOnly public{ // ends the contract and election\r\n        isVotingOpen = false;\r\n    }    \r\n    \r\n    function startElection() adminOnly public{ // begins the election\r\n        isVotingOpen = true;\r\n    }\r\n\r\n    function vote(uint _candidateIndex) public{ // function for the user to vote\r\n        require(isVotingOpen, \"Cannot vote before voting period has begun!\"); // requires voting to be open\r\n        require(voters[msg.sender].authorized, \"Unauthorized to vote!\"); // voter *MUST* be authorized to vote\r\n        require(!voters[msg.sender].voted, \"Already voted!\"); // voter *MUST NOT* have voted\r\n        require(_candidateIndex >= 0, \"Invalid candidate!\"); // requires valid candidateID\r\n        \r\n        voters[msg.sender].vote = _candidateIndex; // sets candidate voted for\r\n        voters[msg.sender].voted = true; // changes voter's status to have voted\r\n        candidates[_candidateIndex].votesReceived += 1; // increments candidate's vote tally\r\n        totalVotes += 1; // increments total votes in election\r\n\r\n        emit voteEvent(msg.sender, _candidateIndex); // vote event\r\n    }\r\n\r\n/********************************************************************READ-ONLY FUNCTIONS*********************************************************************/\r\n\r\n    function getCandidateVotes(uint _candidateIndex) public view returns (uint){ // returns number of votes for candidate, read only function (zero fees)\r\n        require(!isVotingOpen, \"Cannot see candidate's votes until end of voting period!\"); // requires voting to be closed\r\n        require(_candidateIndex >= 0, \"Invalid candidate!\"); // requires valid candidateID\r\n        return candidates[_candidateIndex].votesReceived; // returns candidate's vote tally\r\n    }\r\n\r\n    function getNumofCandidates() public view returns (uint){ // returns number of candidates, read only function (zero fees)\r\n        return candidates.length;\r\n    }\r\n    \r\n    function getWinnerCandidate() public view returns (uint _candidateIndex){ // returns winning candidate's id, read only function (zero fees)\r\n        require(!isVotingOpen, \"Cannot display winner until end of voting period!\"); // requires voting to be closed\r\n\r\n        uint winnersVotes = 0;\r\n\r\n        for (uint i = 0; i < candidates.length; i++) {\r\n            if (candidates[i].votesReceived > winnersVotes) {\r\n                winnersVotes = candidates[i].votesReceived;\r\n                _candidateIndex = i;\r\n            }\r\n        }\r\n    }\r\n\r\n    function getWinnerName() public view returns (string memory _winnerName){ // returns winning candidate's name, read only function (zero fees)\r\n        require(!isVotingOpen, \"Cannot display winner's name until end of voting period!\");// requires voting to be closed\r\n        _winnerName = candidates[getWinnerCandidate()].name;\r\n    }\r\n\r\n}\r\n\r\n/********************************************************************END*********************************************************************/",
  "sourcePath": "C:/Users/Student/Desktop/Varsity/ENEL4DA Electronic Design 3/Design-Project/Code/test/contracts/Election.sol",
  "compiler": {
    "name": "solc",
    "version": "0.5.16+commit.9c3226ce.Emscripten.clang"
  },
  "schemaVersion": "3.4.1",
  "updatedAt": "2021-06-05T11:26:27.962Z",
  "networkType": "ethereum",
  "devdoc": {
    "methods": {}
  },
  "userdoc": {
    "methods": {
      "addCandidate(string)": {
        "notice": "********************************************************************WRITE FUNCTIONS**********************************************************************"
      },
      "constructor": "*********************************************************************CONSTRUCTOR*********************************************************************",
      "getCandidateVotes(uint256)": {
        "notice": "******************************************************************READ-ONLY FUNCTIONS********************************************************************"
      }
    }
  }
}